S018000054484520534146452050524F4A4543542E73726563B5
S11300000C942A000C9447000C9447000C9447006D
S11300100C9447000C9447000C9447000C94470040
S11300200C9447000C9447000C9447000C94470030
S11300300C9447000C9447000C9447000C94470020
S11300400C9447000C9447000C9447000C94470010
S11300500C94470011241FBECFE5D8E0DEBFCDBF0E
S113006010E0A0E6B0E0E4E5FDE002C005900D92EA
S1130070A23CB107D9F710E0A2ECB0E001C01D9298
S1130080A83CB107E1F70E946C050C94A8060C94F7
S1130090000040E00E94500008950E94BF010895AE
S11300A0843409F471C0853448F4823499F183347A
S11300B008F04DC0813409F083C00FC0823651F17D
S11300C0833620F4813609F07BC007C0833609F4F7
S11300D03EC0843609F074C057C0413069F42AB375
S11300E081E090E0AC0102C0440F551F6A95E2F72D
S11300F0BA01622B6ABB08952AB381E090E0AC0197
S113010002C0440F551F6A95E2F7BA016095622355
S11301106ABB0895413069F427B381E090E0AC01F3
S113012002C0440F551F6A95E2F7BA01622B67BB00
S1130130089527B381E090E0AC0102C0440F551F3D
S11301406A95E2F7BA016095622367BB089541306E
S113015069F424B381E090E0AC0102C0440F551F60
S11301606A95E2F7BA01622B64BB089524B381E077
S113017090E0AC0102C0440F551F6A95E2F7BA0142
S11301806095622364BB0895413069F421B381E032
S113019090E0AC0102C0440F551F6A95E2F7BA0122
S11301A0622B61BB089521B381E090E0AC0102C0F1
S11301B0440F551F6A95E2F7BA016095622361BB4B
S11301C00895843409F471C0853448F4823499F173
S11301D0833408F04DC0813409F083C00FC08236E7
S11301E051F1833620F4813609F07BC007C0833691
S11301F009F43EC0843609F074C057C0413069F434
S11302002BB381E090E0AC0102C0440F551F6A9506
S1130210E2F7BA01622B6BBB08952BB381E090E047
S1130220AC0102C0440F551F6A95E2F7BA0160950C
S113023062236BBB0895413069F428B381E090E0F8
S1130240AC0102C0440F551F6A95E2F7BA01622B54
S113025068BB089528B381E090E0AC0102C0440F6C
S1130260551F6A95E2F7BA016095622368BB089549
S1130270413069F425B381E090E0AC0102C0440F41
S1130280551F6A95E2F7BA01622B65BB089525B341
S113029081E090E0AC0102C0440F551F6A95E2F77B
S11302A0BA016095622365BB0895413069F422B3B5
S11302B081E090E0AC0102C0440F551F6A95E2F75B
S11302C0BA01622B62BB089522B381E090E0AC01D5
S11302D002C0440F551F6A95E2F7BA016095622384
S11302E062BB0895843409F43DC0853440F48234FB
S11302F0F9F0833450F5813409F040C00CC08236E3
S1130300B9F0833618F48136C9F505C08336E9F0AF
S11303108436A1F527C02BB381E090E0AC0102C084
S1130320440F551F6A95E2F7BA0162276BBB089523
S113033028B381E090E0AC0102C0440F551F6A95D8
S1130340E2F7BA01622768BB089525B381E090E023
S1130350AC0102C0440F551F6A95E2F7BA01622747
S113036065BB089522B381E090E0AC0102C0440F64
S1130370551F6A95E2F7BA01622762BB0895843477
S113038009F451C0853440F4823439F18334C0F522
S1130390813409F05AC00EC08236F9F0833620F455
S11303A0813609F052C006C0833651F1843609F013
S11303B04CC039C029B381E090E0062E02C0880FFA
S11303C0991F0A94E2F730E08223932302C09695A2
S11303D087956A95E2F7982F38C026B381E090E0BC
S11303E0062E02C0880F991F0A94E2F730E0822398
S11303F0932302C0969587956A95E2F7982F25C0B6
S113040023B381E090E0062E02C0880F991F0A945E
S1130410E2F730E08223932302C0969587956A958C
S1130420E2F7982F12C020B381E090E0062E02C0BC
S1130430880F991F0A94E2F730E08223932302C0C5
S1130440969587956A95E2F7982F892F08958434B5
S1130450D9F0853438F4823499F0833498F48134B3
S1130460A1F40CC0823661F0833618F4813669F445
S113047005C0833639F0843641F406C06ABB08955A
S113048067BB089564BB089561BB08958434D9F0B3
S1130490853438F4823499F0833498F48134A1F4A7
S11304A00CC0823661F0833618F4813669F405C0D5
S11304B0833639F0843641F406C06BBB089568BBBB
S11304C0089565BB089562BB08958434D9F08534DA
S11304D038F4823499F0833498F48134A1F40CC054
S11304E0823661F0833618F4813669F405C08336A8
S11304F039F0843641F406C099B305C096B303C0FD
S113050093B301C090B3892F0895843409F18534DD
S113051038F48234A9F08334B8F48134E1F40CC0A3
S1130520823671F0833618F48136A9F405C0833617
S113053059F0843681F40CC08BB380958BBB08953D
S113054088B3809588BB089585B3809585BB08954D
S113055082B3809582BB0895843409F471C08534D4
S113056048F4823499F1833408F04DC0813409F0A1
S113057083C00FC0823651F1833620F4813609F0EE
S11305807BC007C0833609F43EC0843609F074C0CA
S113059057C0413069F42BB381E090E0AC0102C054
S11305A0440F551F6A95E2F7BA01622B6BBB08959D
S11305B02BB381E090E0AC0102C0440F551F6A9553
S11305C0E2F7BA01609562236BBB0895413069F488
S11305D028B381E090E0AC0102C0440F551F6A9536
S11305E0E2F7BA01622B68BB089528B381E090E07A
S11305F0AC0102C0440F551F6A95E2F7BA01609539
S1130600622368BB0895413069F425B381E090E02A
S1130610AC0102C0440F551F6A95E2F7BA01622B80
S113062065BB089525B381E090E0AC0102C0440F9E
S1130630551F6A95E2F7BA016095622365BB089578
S1130640413069F422B381E090E0AC0102C0440F70
S1130650551F6A95E2F7BA01622B62BB089522B373
S113066081E090E0AC0102C0440F551F6A95E2F7A7
S1130670BA016095622362BB08956F707070843410
S113068051F1853438F48234C1F08334E8F4813490
S113069041F50CC0823689F0833618F4813609F5A9
S11306A005C0833689F08436E1F415C08BB3807FAE
S11306B08BBB8BB3682B6BBB089588B3807F88BBDF
S11306C088B3682B68BB089585B3807F85BB85B3E9
S11306D0682B65BB089582B3807F82BB82B3682B8D
S11306E062BB08956295607F843451F1853438F497
S11306F08234C1F08334E8F4813441F50CC082368D
S113070089F0833618F4813609F505C0833689F0FB
S11307108436E1F415C08BB38F708BBB8BB3682B1D
S11307206BBB089588B38F7088BB88B3682B68BB94
S1130730089585B38F7085BB85B3682B65BB089519
S113074082B38F7082BB82B3682B62BB08958EBB69
S11307509FBB6DBBE29AE19AE199FECF08958EBBEF
S11307609FBBE09A8DB3089584E660E041E00E9467
S1130770500084E661E041E00E94500084E662E0BB
S113078041E00E94500084E663E041E00E94500092
S113079084E664E040E00E94500084E665E040E0C6
S11307A00E94500084E666E040E00E94500084E627
S11307B067E040E00E94500084E664E041E00E946B
S11307C0AC0284E665E041E00E94AC0284E666E0A7
S11307D041E00E94AC0284E667E041E00E94AC0282
S11307E008950F931F93CF93DF93CDB7DEB7609730
S11307F00FB6F894DEBF0FBECDBFDE011196E0E662
S1130800F0E080E101900D928150E1F700E084E690
S113081060E041E00E94E10084E661E041E00E9482
S1130820E10084E662E041E00E94E10084E663E0E6
S113083041E00E94E10084E6602F40E00E94E10074
S113084010E0612F6C5F84E60E94BF01882361F48D
S1130850E02FF0E0EE0FFF1FEE0FFF1FE10FF11D81
S1130860EC0FFD1F818104C01F5F143051F70BC0D2
S113087060960FB6F894DEBF0FBECDBFDF91CF9167
S11308801F910F9108950F5F043009F68FEFF0CF99
S113089081E660E041E00E94E1008FE99FE001977A
S11308A0F1F700C0000081E660E040E00E94E10052
S11308B08FE99FE00197F1F700C000000895CF93FE
S11308C0C82F81E662E040E00E94E1006C2F62954F
S11308D06F7081E40E94720381E661E041E00E944E
S11308E0E1000E94480481E46C2F0E94720381E6B7
S11308F061E041E00E9450000E9448048FEC97E0C0
S11309000197F1F700C00000CF910895CF93C82F4D
S113091081E662E040E00E9450006C2F62956F70A7
S113092081E40E94720381E661E040E00E94E100FC
S11309300E94480481E46C2F0E94720381E661E006
S113094040E00E94E1000E9448048FEC97E0019788
S1130950F1F700C00000CF9108958FEF90E7A2E077
S113096081509040A040E1F700C0000081E464E0C1
S113097041E00E94500081E465E041E00E945000A3
S113098081E466E041E00E94500081E467E041E0D8
S11309900E94500081E660E041E00E94500081E640
S11309A062E041E00E94500081E661E041E00E9483
S11309B0500081E662E040E00E94E10082E00E9493
S11309C08604AFE1BEE41197F1F700C0000088E2AD
S11309D00E9486048FEC97E00197F1F700C00000B5
S11309E08EE00E948604AFECB7E01197F1F700C0E7
S11309F0000081E00E9486048FE097E20197F1F7FE
S1130A0000C0000086E00E948604AFECB7E01197B6
S1130A10F1F700C00000089581E00E948604089563
S1130A20CF93DF93EC018881882331F021960E94D3
S1130A305F0489918823D9F7DF91CF910895982F86
S1130A409150923090F4613198F46623A1F0813092
S1130A5029F4262F30E021583F4F0FC0823069F42B
S1130A60262F30E021543F4F08C020E830E005C075
S1130A7020E830E002C020E830E0822F0E948604A3
S1130A808FEC97E00197F1F700C00000089541E072
S1130A900E945000089541E00E94E100089540E062
S1130AA00E94E100089570E00E94720108950E947E
S1130AB0BF0108956FEF0E94270208956FEF0E940F
S1130AC04602089560E00E94460208950E9485024D
S1130AD008950E94650208950E94AD040E94B40323
S1130AE082E660E00E94470582E661E00E944705D5
S1130AF00F2EF0E72F2EF0E03F2EF02D0F2EF4EC0A
S1130B008F2EF0E09F2EF02D0F2EFAE76F2EF0E0DF
S1130B107F2EF02D0F2EFDE94F2EF0E05F2EF02DED
S1130B208AE090E00E94AF038F3F09F0F7C0C10153
S1130B300E9410051092C3000E94F103C82F8F3F3A
S1130B40D9F38091C30090E00B966C2F0E94A70309
S1130B508C2F0E945F048FEF94E3ACE081509040AF
S1130B60A040E1F700C000006091C300665F81E02F
S1130B700E941F058AE20E945F048FEF94E3ACE0B9
S1130B8081509040A040E1F700C000008AE090E06E
S1130B9060E00E94A7038091C3008F5F8093C3002D
S1130BA0843050F2BBC00E940C05C3010E941005A2
S1130BB01092C300C091C300D0E00E94F103FE0173
S1130BC0EC53FF4F80838091C30090E08C539F4F80
S1130BD0DC018C918F3F71F30E945F048FEF94E3EB
S1130BE0ACE081509040A040E1F700C0000060916B
S1130BF0C300645F81E00E941F058AE20E945F04D3
S1130C008FEF94E3ACE081509040A040E1F700C046
S1130C1000008091C3008F5F8093C300843050F242
S1130C20D401CC918BE090E00E94AF03C817D1F5BA
S1130C30E5ECF0E0C0818CE090E00E94AF03C817BF
S1130C4089F5D801CC918DE090E00E94AF03C817DC
S1130C5049F5F701C0818EE090E00E94AF03C81708
S1130C6009F50E940C05C6010E94100582E061E0AE
S1130C700E941F05C5010E94100582E660E00E94E3
S1130C804B058FEF99E6A8E181509040A040E1F731
S1130C9000C0000082E660E00E944F0581E080937E
S1130CA0C20050C08091C00081508093C00088234E
S1130CB021F10E940C05C2010E94100582E061E04E
S1130CC00E941F0588EA90E00E9410058091C000F0
S1130CD0805D0E945F0482E661E00E944B058FEF15
S1130CE09EE9A4E281509040A040E1F700C00000DA
S1130CF082E661E00E944F0525C00E940C05C201F6
S1130D000E94100582E061E00E941F0584EB90E0E0
S1130D100E94100581E08093C20014C006EC10E02C
S1130D200F2EF7ECEF2EF0E0FF2EF02D0F2EF6E84D
S1130D30CF2EF0E0DF2EF02D0F2EF3E9AF2EF0E0F2
S1130D40BF2EF02D8091C200882309F0E9CE2BCF6D
S1070D50F894FFCF41
S1130D543738392F3435362A3132332D41303D2B4F
S1130D6453455420504153533A00636865636B20E0
S1130D74706173733A00434F5252454354205041B7
S1130D8453530053414645204F50454E0057524F4C
S1130D944E472050415353005452494553204C4527
S1130DA446543A005341464520434C4F534544006E
S1050DB4030036
S9030000FC
