:100000000C942A000C9447000C9447000C94470071
:100010000C9447000C9480070C9447000C94470004
:100020000C9447000C9447000C9491070C944700E3
:100030000C9447000C9447000C9447000C94470024
:100040000C9447000C9447000C9447000C94470014
:100050000C94470011241FBECFE5D8E0DEBFCDBF12
:1000600011E0A0E6B0E0E6E7F0E102C005900D92F5
:10007000AC30B107D9F711E0ACE0B1E001C01D929E
:10008000A331B107E1F70E946B050C9439080C9479
:100090000000843409F471C0853448F4823499F145
:1000A000833408F04DC0813409F083C00FC082361C
:1000B00051F1833620F4813609F07BC007C08336C6
:1000C00009F43EC0843609F074C057C0413069F469
:1000D0002AB381E090E0AC0102C0440F551F6A953D
:1000E000E2F7BA01622B6ABB08952AB381E090E07F
:1000F000AC0102C0440F551F6A95E2F7BA01609542
:1001000062236ABB0895413069F427B381E090E02F
:10011000AC0102C0440F551F6A95E2F7BA01622B89
:1001200067BB089527B381E090E0AC0102C0440FA3
:10013000551F6A95E2F7BA016095622367BB08957F
:10014000413069F424B381E090E0AC0102C0440F77
:10015000551F6A95E2F7BA01622B64BB089524B378
:1001600081E090E0AC0102C0440F551F6A95E2F7B0
:10017000BA016095622364BB0895413069F421B3EC
:1001800081E090E0AC0102C0440F551F6A95E2F790
:10019000BA01622B61BB089521B381E090E0AC010C
:1001A00002C0440F551F6A95E2F7BA0160956223B9
:1001B00061BB08958434D9F0853438F4823499F0E1
:1001C000833498F48134A1F40CC0823661F0833614
:1001D00018F4813669F405C0833639F0843641F469
:1001E00006C06ABB089567BB089564BB089561BBF0
:1001F0000895843409F471C0853448F4823499F147
:10020000833408F04DC0813409F083C00FC08236BA
:1002100051F1833620F4813609F07BC007C0833664
:1002200009F43EC0843609F074C057C0413069F407
:100230002BB381E090E0AC0102C0440F551F6A95DA
:10024000E2F7BA01622B6BBB08952BB381E090E01B
:10025000AC0102C0440F551F6A95E2F7BA016095E0
:1002600062236BBB0895413069F428B381E090E0CC
:10027000AC0102C0440F551F6A95E2F7BA01622B28
:1002800068BB089528B381E090E0AC0102C0440F40
:10029000551F6A95E2F7BA016095622368BB08951D
:1002A000413069F425B381E090E0AC0102C0440F15
:1002B000551F6A95E2F7BA01622B65BB089525B315
:1002C00081E090E0AC0102C0440F551F6A95E2F74F
:1002D000BA016095622365BB0895413069F422B389
:1002E00081E090E0AC0102C0440F551F6A95E2F72F
:1002F000BA01622B62BB089522B381E090E0AC01A9
:1003000002C0440F551F6A95E2F7BA016095622357
:1003100062BB08958434D9F0853438F4823499F07E
:10032000833498F48134A1F40CC0823661F08336B2
:1003300018F4813669F405C0833639F0843641F407
:1003400006C06BBB089568BB089565BB089562BB8A
:100350000895843409F43DC0853440F48234F9F0C2
:10036000833450F5813409F040C00CC08236B9F0B6
:10037000833618F48136C9F505C08336E9F0843632
:10038000A1F527C02BB381E090E0AC0102C0440F7F
:10039000551F6A95E2F7BA0162276BBB089528B32F
:1003A00081E090E0AC0102C0440F551F6A95E2F76E
:1003B000BA01622768BB089525B381E090E0AC01E3
:1003C00002C0440F551F6A95E2F7BA01622765BB68
:1003D000089522B381E090E0AC0102C0440F551FA4
:1003E0006A95E2F7BA01622762BB0895843409F482
:1003F0007AC0853448F48234B1F1833408F053C0B4
:10040000813409F08FC00FC0823669F1833620F441
:10041000813609F087C007C0833609F444C08436AA
:1004200009F080C060C09BB381E089278BBB9BB380
:1004300082E089278BBB9BB384E089278BBB9BB36E
:1004400088E089278BBB9BB380E189278BBB9BB35B
:1004500080E289278BBB9BB380E489278BBB8BB35E
:1004600080588BBB089598B381E0892788BB98B3E7
:1004700082E0892788BB98B384E0892788BB98B33A
:1004800088E0892788BB98B380E1892788BB98B327
:1004900080E2892788BB98B380E4892788BB88B32A
:1004A000805888BB089595B381E0892785BB95B3B3
:1004B00082E0892785BB95B384E0892785BB95B306
:1004C00088E0892785BB95B380E1892785BB95B3F3
:1004D00080E2892785BB95B380E4892785BB85B3F6
:1004E000805885BB089592B381E0892782BB92B37F
:1004F00082E0892782BB92B384E0892782BB92B3D2
:1005000088E0892782BB92B380E1892782BB92B3BE
:1005100080E2892782BB92B380E4892782BB82B3C1
:10052000805882BB0895843409F451C0853440F466
:10053000823439F18334C0F5813409F05AC00EC0D9
:100540008236F9F0833620F4813609F052C006C0B5
:10055000833651F1843609F04CC039C029B381E0AB
:1005600090E0062E02C0880F991F0A94E2F730E04F
:100570008223932302C0959587956A95E2F7982F79
:1005800038C026B381E090E0062E02C0880F991F84
:100590000A94E2F730E08223932302C09595879571
:1005A0006A95E2F7982F25C023B381E090E0062EEC
:1005B00002C0880F991F0A94E2F730E08223932348
:1005C00002C0959587956A95E2F7982F12C020B3DF
:1005D00081E090E0062E02C0880F991F0A94E2F78E
:1005E00030E08223932302C0959587956A95E2F7C0
:1005F000982F892F08958434D9F0853438F48234C3
:1006000099F0833498F48134A1F40CC0823661F0FF
:10061000833618F4813669F405C0833639F08436A0
:1006200041F406C099B305C096B303C093B301C0AB
:1006300090B3892F0895843409F43DC0853440F483
:100640008234F9F0833450F5813409F040C00CC095
:100650008236B9F0833618F48136C9F505C0833681
:10066000E9F08436A1F527C02BB381E090E0AC011E
:1006700002C0440F551F6A95E2F7BA01622B6BBBAB
:10068000089528B381E090E0AC0102C0440F551FEB
:100690006A95E2F7BA01622B68BB089525B381E041
:1006A00090E0AC0102C0440F551F6A95E2F7BA0111
:1006B000622B65BB089522B381E090E0AC0102C0DB
:1006C000440F551F6A95E2F7BA01622B62BB089589
:1006D0006F70843451F1853438F48234C1F083343E
:1006E000E8F4813441F50CC0823689F0833618F481
:1006F000813609F505C0833689F08436E1F415C0EA
:100700008BB3807F8BBB8BB3682B6BBB089588B397
:10071000807F88BB88B3682B68BB089585B3807FD2
:1007200085BB85B3682B65BB089582B3807F82BB90
:1007300082B3682B62BB08956295607F843451F167
:10074000853438F48234C1F08334E8F4813441F5DF
:100750000CC0823689F0833618F4813609F505C05D
:10076000833689F08436E1F415C08BB38F708BBB70
:100770008BB3682B6BBB089588B38F7088BB88B32D
:10078000682B68BB089585B38F7085BB85B3682BD4
:1007900065BB089582B38F7082BB82B3682B62BB46
:1007A0000895CF93C82F60E041E00E9449008C2F4C
:1007B00061E041E00E9449008C2F62E041E00E942C
:1007C00049008C2F63E041E00E9449008C2F64E0D7
:1007D00040E00E9449008C2F65E040E00E94490003
:1007E0008C2F66E040E00E9449008C2F67E040E0DB
:1007F0000E9449008C2F64E00E941B038C2F65E04F
:100800000E941B038C2F66E00E941B038C2F67E065
:100810000E941B03CF910895EF92FF920F931F93B5
:10082000CF93DF93CDB7DEB760970FB6F894DEBFF6
:100830000FBECDBF082FDE011196E0E6F0E080E1AB
:1008400001900D928150E1F7EE24FF24802F60E0AB
:1008500041E00E94F900802F61E041E00E94F90030
:10086000802F62E041E00E94F900802F63E041E0C8
:100870000E94F900802F6E2D40E00E94F90010E0E8
:10088000612F6C5F802F0E949302882389F4F70107
:10089000EE0FFF1FEE0FFF1FE10FF11D81E090E053
:1008A0008C0F9D1FE80FF91F80818F3F21F00BC037
:1008B0001F5F143029F70894E11CF11C94E0E9163D
:1008C000F10421F68FEF60960FB6F894DEBF0FBEED
:1008D000CDBFDF91CF911F910F91FF90EF900895C1
:1008E00081E662E041E00E94F9008FE99FE0019714
:1008F000F1F700C0000081E662E040E00E94F900EC
:100900008FE99FE00197F1F700C000000895CF93B1
:10091000C82F81E661E040E00E94F9006C2F6295EB
:100920006F7081E60E949C0381E660E040E00E94D7
:10093000F9000E94700481E66C2F0E949C0381E6FE
:1009400060E040E00E94F9000E9470048FEC97E0A4
:100950000197F1F700C00000CF91089581E00E9457
:1009600087040895813019F4962F915815C082306C
:1009700019F4962F915410C0833038F4613138F453
:10098000882339F0662339F007C090E805C090E865
:1009900003C090E801C090E8892F0E9487048FEC83
:1009A00097E00197F1F700C0000008958FE798E302
:1009B000A1E081509040A040E1F700C0000081E636
:1009C00064E041E00E94490081E665E041E00E9468
:1009D000490081E666E041E00E94490081E667E067
:1009E00041E00E94490081E661E041E00E94490047
:1009F00081E662E041E00E94490081E660E041E07A
:100A00000E94490081E661E040E00E94F90082E036
:100A10000E948704AFECB7E01197F1F700C0000027
:100A200088E20E9487048FEC97E00197F1F700C0FD
:100A300000008EE00E948704AFECB7E01197F1F759
:100A400000C0000081E00E9487048FE697E10197D3
:100A5000F1F700C0000086E00E948704AFE9BFE024
:100A60001197F1F700C000000895CF93C82F81E6D9
:100A700061E040E00E94F9006C2F62956F7081E6A2
:100A80000E949C0381E660E041E00E94F9000E9420
:100A9000700481E66C2F0E949C0381E660E041E0D7
:100AA0000E94F9000E9470048FEC97E00197F1F723
:100AB00000C00000CF910895CF93DF93EC018881AF
:100AC000882331F021960E94350589918823D9F732
:100AD000DF91CF9108950E94D60482E60E94A0077C
:100AE00084E60E94D103A09AA19AA29AA39AA49AFA
:100AF000A59A80E790E00E945C0582E061E00E9498
:100B0000B2048FE790E00E945C050E94C6070E9435
:100B10001D080F2EF1EEEF2EF0E0FF2EF02D00E776
:100B200010E00F2EFEEECF2EF0E0DF2EF02D0F2E78
:100B3000F7EC8F2EF0E09F2EF02D0F2EF5ED6F2E9F
:100B4000F0E07F2EF02D0F2EFFE7AF2EF0E0BF2E4E
:100B5000F02D0F2EF0E94F2EF0E05F2EF02D0F2E2E
:100B6000F1EA2F2EF0E03F2EF02DCAE084E60E943D
:100B70000C04809312018F3F09F426C1813309F0E0
:100B8000DBC081E00E948704C2010E945C0582E014
:100B900061E00E94B2048FEF94E3ACE0815090409A
:100BA000A040E1F700C0000084E60E940C0480939E
:100BB00010018F3FC9F30E9435058FEF92E5A7E042
:100BC00081509040A040E1F700C0000084E60E9400
:100BD0000C04809311018F3FC9F30E9435058FEFFC
:100BE00092E5A7E081509040A040E1F700C00000EE
:100BF00090911101905180911001880F282F220FA0
:100C0000220F820F890F80930C0181E00E948704DC
:100C1000C1010E945C0582E061E00E94B2048FEF96
:100C200094E3ACE081509040A040E1F700C00000A8
:100C300084E60E940C04809310018F3FC9F30E9448
:100C400035058FEF92E5A7E081509040A040E1F795
:100C500000C0000084E60E940C04809311018F3FC5
:100C6000C9F30E9435058FEF92E5A7E081509040CF
:100C7000A040E1F700C000009091110190518091D7
:100C80001001880F282F220F220F820F890F8093C7
:100C90000D0181E00E94870484EB90E00E945C05D6
:100CA00082E061E00E94B2048FEF94E3ACE08150F7
:100CB0009040A040E1F700C0000084E60E940C04D0
:100CC000809310018F3FC9F30E9435058FEF92E5A5
:100CD000A7E081509040A040E1F700C0000084E60A
:100CE0000E940C04809311018F3FC9F30E943505C7
:100CF0008FEF92E5A7E081509040A040E1F700C05F
:100D0000000090911101905180911001880F282FBF
:100D1000220F220F820F890F80930F0181E00E9422
:100D20008704C8010E945C0582E061E00E94B20471
:100D3000C5010E945C0548C0823351F510920F0135
:100D400010920D0110920C0181E00E948704C401F1
:100D50000E945C0582E061E00E94B204C3010E942F
:100D60005C058FEF94E3ACE081509040A040E1F748
:100D700000C0000081E00E948704C8010E945C0559
:100D800082E061E00E94B204C5010E945C051CC0C3
:100D900081E00E948704C7010E945C058FEF99E6FD
:100DA000A8E181509040A040E1F700C0000081E040
:100DB0000E948704C8010E945C0582E061E00E94F5
:100DC000B204C6010E945C05A898A99AAA9AAB9A97
:100DD000AC9AAD9A80910F016C2F0E942D0882E48D
:100DE000692F0E94A40780910E018823E1F31092DD
:100DF0000E01A998A89AAA9AAB9AAC9AAD9A80913A
:100E00000F016C2F0E942D08682F82E40E94A40716
:100E100080910E018823E1F310920E01AA98A89AFE
:100E2000A99AAB9AAC9AAD9A80910D016C2F0E9451
:100E30002D0882E4692F0E94A40780910E01882367
:100E4000E1F310920E01AB98A89AAA9AA99AAC9ACB
:100E5000AD9A80910D016C2F0E942D08682F82E4BD
:100E60000E94A40780910E018823E1F310920E01E5
:100E7000AC98A89AAA9AAB9AA99AAD9A80910C01BB
:100E80006C2F0E942D0882E4692F0E94A407809194
:100E90000E018823E1F310920E01AD98A89AAA9A48
:100EA000AB9AAC9AA99A80910C016C2F0E942D08E4
:100EB000682F82E40E94A40780910E018823E1F349
:100EC00010920E0180910F018C3338F010920F01B7
:100ED00080910D018F5F80930D0180910D018C3306
:100EE00038F010920D0180910C018F5F80930C01FE
:100EF00080910C01883108F439CE10920C0136CE65
:100F00001F920F920FB60F9211248F9380910F01B1
:100F10008F5F80930F018F910F900FBE0F901F90E6
:100F200018951F920F920FB60F9211248F9381E0A4
:100F300080930E018F910F900FBE0F901F90189508
:100F40006FEF0E94DA000895CF93DF93CDB7DEB73D
:100F500060970FB6F894DEBF0FBECDBFDE011196CD
:100F6000EBEFF0E090E101900D929150E1F7FE017E
:100F7000E60FF11D61810E948A0160960FB6F89418
:100F8000DEBF0FBECDBFDF91CF91089583B78860DC
:100F900083BF82E18CBF83B7846083BF8FB78068D3
:100FA0008FBF89B7826089BF089583B7886083BF88
:100FB00083B7816083BF83B7846083BF80E48CBFC5
:100FC00083B7806183BF82E490E063E070E041E03A
:100FD00050E00E944900089583B7806483BF83B7BF
:100FE000886083BF83B7816083BF83B7846083BF1A
:100FF00080E48CBF82E490E063E070E041E050E088
:101000000E94490083B7806283BF089583B78064DC
:1010100083BF83B7816083BF83B7846083BF80E46D
:101020008CBF82E490E063E070E041E050E00E9419
:10103000490083B7806283BF089582B5886082BD0E
:1010400085B5816085BD85B5846085BD8FB78068B5
:101050008FBF89B7806489BF0895991B79E004C068
:10106000991F961708F0961B881F7A95C9F78095E7
:061070000895F894FFCF83
:101076003738392F3435362A3132332D41303D2B2E
:10108600436C69636B203120546F205365740043B1
:101096006C69636B203220546F205265736574004F
:1010A600456E7465722054686520486F7572203AE3
:1010B60000456E74657220546865204D696E7574BE
:1010C60065203A00456E7465722054686520536544
:1010D600636F6E64203A0054686520436C6F636BDF
:1010E60020686173006265656E2072657365742E93
:1010F6000057726F6E672043686F696365005468B6
:101106006520436C6F636B2E2E2E003F065B4F6689
:0C1116006D7D477F6F777C395E7971003A
:00000001FF
