S00B000045564D2E7372656331
S11300000C942A000C9447000C9447000C9447006D
S11300100C9447000C9447000C9447000C94470040
S11300200C9447000C9447000C9447000C94470030
S11300300C9447000C9447000C9447000C94470020
S11300400C9447000C9447000C9447000C94470010
S11300500C94470011241FBECFE5D8E0DEBFCDBF0E
S113006010E0A0E6B0E0E6E7FDE002C005900D92E6
S1130070A037B107D9F710E0A0E7B0E001C01D92A6
S1130080A037B107E1F70E94B2030C94B9060C94AF
S11300900000CF93DF93D82FC62F40E00E945B006F
S11300A08D2F6C2F41E00E94B702DF91CF9108950C
S11300B00E94CA010895843409F471C0853448F457
S11300C0823499F1833408F04DC0813409F083C03F
S11300D00FC0823651F1833620F4813609F07BC09B
S11300E007C0833609F43EC0843609F074C057C093
S11300F0413069F42AB381E090E0AC0102C0440FBE
S1130100551F6A95E2F7BA01622B6ABB08952AB3B8
S113011081E090E0AC0102C0440F551F6A95E2F7FC
S1130120BA01609562236ABB0895413069F427B32C
S113013081E090E0AC0102C0440F551F6A95E2F7DC
S1130140BA01622B67BB089527B381E090E0AC014C
S113015002C0440F551F6A95E2F7BA016095622305
S113016067BB0895413069F424B381E090E0AC01A9
S113017002C0440F551F6A95E2F7BA01622B64BBB3
S1130180089524B381E090E0AC0102C0440F551FF0
S11301906A95E2F7BA016095622364BB0895413021
S11301A069F421B381E090E0AC0102C0440F551F13
S11301B06A95E2F7BA01622B61BB089521B381E02D
S11301C090E0AC0102C0440F551F6A95E2F7BA01F2
S11301D06095622361BB0895843409F471C0853449
S11301E048F4823499F1833408F04DC0813409F025
S11301F083C00FC0823651F1833620F4813609F072
S11302007BC007C0833609F43EC0843609F074C04D
S113021057C0413069F42BB381E090E0AC0102C0D7
S1130220440F551F6A95E2F7BA01622B6BBB089520
S11302302BB381E090E0AC0102C0440F551F6A95D6
S1130240E2F7BA01609562236BBB0895413069F40B
S113025028B381E090E0AC0102C0440F551F6A95B9
S1130260E2F7BA01622B68BB089528B381E090E0FD
S1130270AC0102C0440F551F6A95E2F7BA016095BC
S1130280622368BB0895413069F425B381E090E0AE
S1130290AC0102C0440F551F6A95E2F7BA01622B04
S11302A065BB089525B381E090E0AC0102C0440F22
S11302B0551F6A95E2F7BA016095622365BB0895FC
S11302C0413069F422B381E090E0AC0102C0440FF4
S11302D0551F6A95E2F7BA01622B62BB089522B3F7
S11302E081E090E0AC0102C0440F551F6A95E2F72B
S11302F0BA016095622362BB0895843409F43DC059
S1130300853440F48234F9F0833450F5813409F0B3
S113031040C00CC08236B9F0833618F48136C9F572
S113032005C08336E9F08436A1F527C02BB381E0FC
S113033090E0AC0102C0440F551F6A95E2F7BA0180
S113034062276BBB089528B381E090E0AC0102C042
S1130350440F551F6A95E2F7BA01622768BB0895F6
S113036025B381E090E0AC0102C0440F551F6A95AB
S1130370E2F7BA01622765BB089522B381E090E0F9
S1130380AC0102C0440F551F6A95E2F7BA01622717
S113039062BB0895843409F451C0853440F4823436
S11303A039F18334C0F5813409F05AC00EC0823665
S11303B0F9F0833620F4813609F052C006C0833642
S11303C051F1843609F04CC039C029B381E090E082
S11303D0062E02C0880F991F0A94E2F730E08223A8
S11303E0932302C0969587956A95E2F7982F38C0B3
S11303F026B381E090E0062E02C0880F991F0A946C
S1130400E2F730E08223932302C0969587956A959C
S1130410E2F7982F25C023B381E090E0062E02C0B6
S1130420880F991F0A94E2F730E08223932302C0D5
S1130430969587956A95E2F7982F12C020B381E0CC
S113044090E0062E02C0880F991F0A94E2F730E06C
S11304508223932302C0969587956A95E2F7982F95
S1130460892F08958434D9F0853438F4823499F08E
S1130470833498F48134A1F40CC0823661F083365D
S113048018F4813669F405C0833639F0843641F4B2
S113049006C06ABB089567BB089564BB089561BB39
S11304A008958434D9F0853438F4823499F083344F
S11304B098F48134A1F40CC0823661F0833618F4C8
S11304C0813669F405C0833639F0843641F406C0B8
S11304D06BBB089568BB089565BB089562BB08951E
S11304E08434D9F0853438F4823499F0833498F420
S11304F08134A1F40CC0823661F0833618F481365D
S113050069F405C0833639F0843641F406C099B3E2
S113051005C096B303C093B301C090B3892F089567
S1130520843409F1853438F48234A9F08334B8F47E
S11305308134E1F40CC0823671F0833618F48136CC
S1130540A9F405C0833659F0843681F40CC08BB30A
S113055080958BBB089588B3809588BB089585B337
S1130560809585BB089582B3809582BB08958434B9
S113057009F471C0853448F4823499F1833408F065
S11305804DC0813409F083C00FC0823651F18336E7
S113059020F4813609F07BC007C0833609F43EC0DD
S11305A0843609F074C057C0413069F42BB381E03C
S11305B090E0AC0102C0440F551F6A95E2F7BA01FE
S11305C0622B6BBB08952BB381E090E0AC0102C0B9
S11305D0440F551F6A95E2F7BA01609562236BBB1D
S11305E00895413069F428B381E090E0AC0102C081
S11305F0440F551F6A95E2F7BA01622B68BB089550
S113060028B381E090E0AC0102C0440F551F6A9505
S1130610E2F7BA016095622368BB0895413069F43A
S113062025B381E090E0AC0102C0440F551F6A95E8
S1130630E2F7BA01622B65BB089525B381E090E02F
S1130640AC0102C0440F551F6A95E2F7BA016095E8
S1130650622365BB0895413069F422B381E090E0E0
S1130660AC0102C0440F551F6A95E2F7BA01622B30
S113067062BB089522B381E090E0AC0102C0440F54
S1130680551F6A95E2F7BA016095622362BB08952B
S11306906F707070843451F1853438F48234C1F051
S11306A08334E8F4813441F50CC0823689F0833612
S11306B018F4813609F505C0833689F08436E1F4EF
S11306C015C08BB3807F8BBB8BB3682B6BBB08953A
S11306D088B3807F88BB88B3682B68BB089585B3D3
S11306E0807F85BB85B3682B65BB089582B3807F0B
S11306F082BB82B3682B62BB08956295607F8434A9
S113070051F1853438F48234C1F08334E8F481340F
S113071041F50CC0823689F0833618F4813609F528
S113072005C0833689F08436E1F415C08BB38F702D
S11307308BBB8BB3682B6BBB089588B38F7088BB5E
S113074088B3682B68BB089585B38F7085BB85B368
S1130750682B65BB089582B38F7082BB82B3682B0C
S113076062BB08950F2EF0E64F2EF0E05F2EF02DC1
S11307700F2EF4E62F2EF0E03F2EF02DCC24DD24B6
S11307800F2EFAE06F2E7724F02D0E94E60584E602
S113079090E063E070E00E94490084E690E064E049
S11307A070E00E94490084E690E065E070E00E94F9
S11307B0490084E690E066E070E00E94490084E627
S11307C090E067E070E00E944900C2010E9449067F
S11307D081E06CE00E945806C1010E94490682E053
S11307E061E00E94580688E690E00E94490682E093
S11307F06CE00E9458068CE690E00E94490646018F
S113080056017601860184E690E064E070E00E947F
S11308105800009709F054C0E801219681E063E094
S11308200E945806CA30D10558F480E20E94980507
S113083080E20E9498058C2F805D0E94980536C046
S1130840C80109978A35910588F480E20E949805C9
S1130850CE01B3010E94A506082F862F805D0E9459
S11308609805802F805D0E94980520C0C80183569A
S1130870904023E084389207C8F4CE0164E670E027
S11308800E94A506862F805D0E949805CE01B301C3
S11308900E94A506082FCB01B3010E94A506805D26
S11308A00E949805802F805D0E94980584E690E060
S11308B064E070E00E9458000097C1F38E01A3CF5A
S11308C084E690E065E070E00E945800009709F02B
S11308D054C0E701219681E06EE00E945806CA30B8
S11308E0D10558F480E20E94980580E20E949805A0
S11308F08C2F805D0E94980536C0C70109978A3500
S1130900910588F480E20E949805CE01B3010E940B
S1130910A506E82E862F805D0E9498058E2D805DA9
S11309200E94980520C0C7018356904023E0843874
S11309309207C8F4CE0164E670E00E94A506862FF3
S1130940805D0E949805CE01B3010E94A506E82EA1
S1130950CB01B3010E94A506805D0E9498058E2DEF
S1130960805D0E94980584E690E065E070E00E9456
S113097058000097C1F37E0146CF84E690E066E01C
S113098070E00E945800009709F054C0E5012196D8
S113099082E063E00E945806CA30D10558F480E230
S11309A00E94980580E20E9498058C2F805D0E9429
S11309B0980536C0C50109978A35910588F480E207
S11309C00E949805CE01B3010E94A506A82E862F89
S11309D0805D0E9498058A2D805D0E94980520C044
S11309E0C5018356904023E084389207C8F4CE01B1
S11309F064E670E00E94A506862F805D0E9498053B
S1130A00CE01B3010E94A506A82ECB01B3010E941A
S1130A10A506805D0E9498058A2D805D0E94980538
S1130A2084E690E066E070E00E9458000097C1F30D
S1130A305E01E9CE84E690E067E070E00E94580031
S1130A40009709F054C0E401219682E06EE00E9410
S1130A505806CA30D10558F480E20E94980580E215
S1130A600E9498058C2F805D0E94980536C0C401B1
S1130A7009978A35910588F480E20E949805CE0191
S1130A80B3010E94A506882E862F805D0E949805DA
S1130A90882D805D0E94980520C0C4018356904033
S1130AA023E084389207C8F4CE0164E670E00E9423
S1130AB0A506862F805D0E949805CE01B3010E9491
S1130AC0A506882ECB01B3010E94A506805D0E9475
S1130AD09805882D805D0E94980584E690E067E083
S1130AE070E00E9458000097C1F34E018CCE84E65A
S1130AF090E063E070E00E945800009709F445CE4E
S1130B0082CE83E661E041E00E94EC008FE99FE041
S1130B100197F1F700C0000083E661E040E00E9425
S1130B20EC008FE99FE00197F1F700C00000089501
S1130B30CF93C82F83E662E040E00E94EC006C2F64
S1130B4062956F7083E60E947D0383E660E041E076
S1130B500E94EC000E94810583E66C2F0E947D03B5
S1130B6083E660E041E00E945B000E9481058FEC17
S1130B7097E00197F1F700C00000CF910895CF935B
S1130B80C82F83E662E040E00E945B006C2F629510
S1130B906F7083E60E947D0383E660E040E00E947C
S1130BA0EC000E94810583E66C2F0E947D0383E69E
S1130BB060E040E00E94EC000E9481058FEC97E029
S1130BC00197F1F700C00000CF9108958FEF90E7EF
S1130BD0A2E081509040A040E1F700C0000083E60D
S1130BE064E041E00E945B0083E665E041E00E942E
S1130BF05B0083E666E041E00E945B0083E667E019
S1130C0041E00E945B0083E661E041E00E945B00FA
S1130C1083E662E041E00E945B0083E660E041E03D
S1130C200E945B0083E662E040E00E94EC0082E008
S1130C300E94BF05AFE1BEE41197F1F700C00000C8
S1130C4088E20E94BF058FEC97E00197F1F700C09E
S1130C5000008CE00E94BF05AFECB7E01197F1F7FC
S1130C6000C0000081E00E94BF058FE097E2019779
S1130C70F1F700C0000086E00E94BF05AFECB7E0CA
S1130C801197F1F700C00000089581E00E94BF05AC
S1130C900895CF93DF93EC018881882331F0219666
S1130CA00E94980589918823D9F7DF91CF910895FF
S1130CB0982F9150923090F4613198F46623A1F00A
S1130CC0813029F4262F30E021583F4F0FC0823065
S1130CD069F4262F30E021543F4F08C020E830E06B
S1130CE005C020E830E002C020E830E0822F0E94F6
S1130CF0BF058FEC97E00197F1F700C0000008955D
S1130D0041E00E945B00089541E00E94EC000895D8
S1130D1040E00E94EC00089570E00E947D01089577
S1130D200E94CA0108956FEF0E94320208956FEF86
S1130D300E945102089560E00E94510208950E94A9
S1130D40900208950E9470020895AA1BBB1B51E1F2
S1130D5007C0AA1FBB1FA617B70710F0A61BB70B27
S1130D60881F991F5A95A9F780959095BC01CD01CC
S1090D700895F894FFCF82
S1130D76413D3000423D3000433D3000443D3000AB
S9030000FC
